:100000005DC09BC080C07FC07EC07DC07CC07BC007
:100010007AC0E4C478C077C076C075C074C073C0BD
:1000200072C071C070C009022200010100807D0908
:100030000400000103000000092101010001221D4C
:100040000007058103080064120110010000000888
:10005000C016DF0500010102000120034100750008
:1000600074006F002D004200720069006700680094
:1000700074006E006500730073001E03440061008D
:100080006E006E0079004C00610062007300200079
:1000900049006E0063002E00040309040600FF09F6
:1000A00001A101150026FF007508950809008202CC
:1000B0000195200900B20201C000660211241FBE92
:1000C000CFE5D4E0DEBFCDBF10E0A0E6B0E0E4E3D2
:1000D000FEE002C005900D92A038B107D9F720E0EC
:1000E000A0E8B0E001C01D92AF3FB207E1F710E019
:1000F000CCEBD0E003C02297FE018AD6CA3BD107E1
:10010000D1F7B7D595C67CCFA82FB92F80E090E066
:1001100041E050EA609530E009C02D918227979523
:10012000879510F084279527305EC8F36F5FA8F39A
:100130000895EADF8D939D930895CF93CFB7CF9322
:10014000DF93C395879BE9F7879B0BC0879B09C00B
:10015000879B07C0879B05C0879B03C0879B01C007
:100160008BC06F93C091E200DD27C751DF4F2F9303
:1001700065E5879B03C02F916F91E6CF0F931F9387
:100180004F9320E040E15F9300B3047807FB27F929
:100190003F9350E03BE039C0147840642F77012F43
:1001A0005F5F1EC0406810B314782F7752501FC095
:1001B000406400B32F770478D1F15F5F00C023C0A3
:1001C000406210B32F77147891F15F5F00C025C0B3
:1001D00004781027515012F45D5F000011502795EC
:1001E0002C3F10B3C8F614780127015027952C3FF7
:1001F000C8F64227499300B3047810274F73115073
:1002000027952C3FA8F64695469510B3147879F0BB
:100210000127015027952C3F98F66B5A60F3315017
:1002200000B3B0F600C010E41ABF002719C03B505D
:100230003195C31BD04010E41ABF0881033C09F17B
:100240000B34F9F02091E0001981110F1213EDCF5A
:100250004A81441F093651F10D3211F0013E29F750
:100260000093E7003F915F914F911F910F912F9164
:100270006F91CAB7C6FD65CFDF91CF91CFBFCF9148
:1002800018952091E700222369F31091E5001123CE
:1002900091F5343092F13093E5002093E100109114
:1002A000E2003BE0311B3093E20027C00091E50003
:1002B00001300CF50AE54F7049F43091650034FDCA
:1002C0001DC000936500C9ECD0E01CC03091D40083
:1002D00034FD14C00093D400C5EDD0E013C0052751
:1002E00010E000C0000002BB1AC0052710E0221F6A
:1002F0001DC010E021C04AE502C032ED432FC4E129
:10030000D0E032E011B31468979A02B311BB54E8FD
:1003100020E865E320FF052702BB279517951C3FC2
:10032000F0F66695B8F7B1F720FF052702BB2795D1
:1003300017951C3FD0F62795179517FF0527000046
:100340001C3F02BBB0F629913A9519F70B77109133
:10035000E600110FC651D04002BB11F01093E0002F
:1003600010E41ABF006811B31B77402F4B7754E09D
:100370005A95F1F702BB11BB42BB74CF8CC2AF924E
:10038000BF92CF92DF92EF92FF920F931F938091D3
:100390008A0090918B00A0918C00B0918D00892BE8
:1003A0008A2B8B2B91F064D300918A0010918B00E3
:1003B00020918C0030918D000C591F4F2F4F3F4FD3
:1003C000061717072807390720F5809188009091B4
:1003D00089000A973CF580E0EDD2209186003091AB
:1003E0008700280F391F3093870020938600809163
:1003F00088009091890001969093890080938800ED
:1004000037D360938A0070938B0080938C00909315
:100410008D001F910F91FF90EF90DF90CF90BF90D4
:10042000AF904BC280918600909187006AE070E0A7
:100430007ED46D3281E0780714F06CE271E077FFD2
:1004400002C060E070E070938500609384008827AC
:1004500077FD8095982F1F921F921F9225E02F9372
:10046000A12CB12C65011CE2E12EFF24F39400E0E5
:1004700010E020E030E0A90106D47093830060937F
:1004800082000F900F900F900F902091800030917C
:1004900081002617370769F04AE050E08EE890E0C7
:1004A000D1D38091820090918300909381008093BA
:1004B00080001092870010928600109285001092A2
:1004C000840010928900109288009ACF8EE890E004
:1004D000DAC1CF93C62F2091D40024FF07C020910A
:1004E000D50038E823272093D50003C02AE52093C0
:1004F000D400DC01E6EDF0E09C2F9E0F8D918193FE
:10050000892F8E1B1816D4F36C2F86ED90E011DE28
:10051000CC5FC093D400CF910895CF93DF936091C7
:10052000E500635067FDC3C08091E200CCE0D0E0FD
:10053000C81BD109C751DF4F8091E1008D3209F00E
:10054000A5C0683009F0B1C083EC8093C9008AE58A
:1005500080936500109292008881807631F0CE0100
:1005600074D18F3F09F481C087C09A811092D20064
:100570008981811106C01092D30022ED30E082E023
:100580006FC0853019F49093E60067C0863009F09B
:100590004EC08B81813041F488E490E09093E40078
:1005A0008093E30082E13FC0823041F486E290E034
:1005B0009093E4008093E30082E235C08330F1F44D
:1005C000911108C088E990E09093E4008093E300E3
:1005D00084E029C0913041F48AE790E09093E400F0
:1005E0008093E3008EE11FC09230E1F48AE590E051
:1005F0009093E4008093E30080E215C0813241F4DF
:1006000088E390E09093E4008093E30089E00BC0DE
:10061000823241F48CE990E09093E4008093E3000F
:100620008DE101C080E090E49093920025C0883075
:1006300069F0893019F49093E8000FC08A3049F0CE
:100640008B3059F48BE48093D50007C028EE30E05E
:1006500002C022ED30E081E003C022ED30E080E016
:100660003093E4002093E30007C0988197FD8E81CA
:1006700090E89093920007C09F81911104C09E81E1
:10068000981708F4892F809364000FC0809192001E
:1006900087FF0BC0CE01A6D08F3F21F48EE180935F
:1006A000650003C08111109264001092E5008091F2
:1006B000650084FF5CC0809164008F3F09F457C0DF
:1006C000C82F893008F0C8E08C1B809364008091AB
:1006D000C90098E889278093C900CC23B9F180919B
:1006E000920087FF08C06C2F8AEC90E079D0C82F69
:1006F0008930B8F52BC02091E3003091E40086FFEB
:1007000012C0AAECB0E049EC50E040955095420F81
:10071000531F8C2F8A0FFA01EA0FFB1FE491ED9310
:100720008A13F9CF09C0EAECF0E0D9018C2F8E0FC3
:100730009D9191938E13FCCF2F5F3F4F8FEF8C0FC6
:10074000280F311D3093E4002093E3006C2F8AECD6
:1007500090E0EFDCCC5FCC3041F08FEF8093640011
:1007600004C08FEF80936400CEE1C093650084E104
:1007700090B3947831F48150D9F71092E60010923A
:10078000E000DF91CF91089585B7826085BF8BB778
:1007900080648BBF8BE48093D5008AE58093D4007E
:1007A0000895CF93DF931F92CDB7DEB78091D40029
:1007B00084FD04C06983B1DE6981F8CF88E0E7EB8E
:1007C000F0E0DF011D928A95E9F76093B70068E0D9
:1007D000CF017FDE81E090E00F90DF91CF9108950F
:1007E00080E008952091960021112BC02091950062
:1007F000261708F4622F422F461B40939500E09184
:100800009300F0919400DC0170E09D01281B390BEE
:100810002617370734F42D912223B9F3208331961C
:10082000F4CFF0939400E093930041110CC081E069
:100830008093BF00CF010196909394008093930022
:10084000108281E0089580E00895FC018281809308
:100850009600208120762032A1F48181813079F0C8
:10086000893079F487E990E0909394008093930025
:10087000868180939500813210F0209395008FEF50
:10088000089580E00895FC01138212822BE630E087
:10089000318320830895F8948F9A80E0815039F055
:1008A000EFE9FFE03197F1F700C00000F7CF8F9834
:1008B0006BDF78941092BF0008952FCEEF92FF92D5
:1008C0000F931F93CF93DF9300D0CDB7DEB77A019C
:1008D0008091D40084FD06C069837A831EDE7A810C
:1008E0006981F6CF88E0E7EBF0E0DF011D928A95A1
:1008F000E9F7FB01A7EBB0E020E030E089012E151D
:100900003F0541F02F5F3F4F2930310519F08191AC
:100910008D93F4CF68E087EB90E0DBDDC8010F90AA
:100920000F90DF91CF911F910F91FF90EF9008955D
:100930009F92AF92BF92CF92DF92EF92FF920F936E
:100940001F93CF93DF936C015B017A018A0193E0DF
:10095000169507959A95E1F70F5F1F4F912CC0E010
:10096000D0E0692D70E0CE0160177107B8F40896E9
:10097000E816F90620F4A7014C1B5D0B02C048E005
:1009800050E083E0660F771F8A95E1F76A0D7B1DC3
:10099000C60194DFC80FD91F9394E3CFDF91CF91A5
:1009A0001F910F91FF90EF90DF90CF90BF90AF908D
:1009B0009F9008958E3008F08E50877020916600C9
:1009C00090E4299F90011124822B87B9369A369999
:1009D000FECF84B125B190E0922B08951F920F9223
:1009E0000FB60F9211242F933F938F939F93AF9342
:1009F000BF938091C1009091C200A091C300B091BB
:100A0000C4003091C00023E0230F2D3720F401965D
:100A1000A11DB11D05C026E8230F0296A11DB11D21
:100A20002093C0008093C1009093C200A093C300A4
:100A3000B093C4008091C5009091C600A091C700FA
:100A4000B091C8000196A11DB11D8093C50090937F
:100A5000C600A093C700B093C800BF91AF919F910B
:100A60008F913F912F910F900FBE0F901F9018956F
:100A70002FB7F8946091C1007091C2008091C300BB
:100A80009091C4002FBF0895789483B7826083BF8C
:100A900083B7816083BF89B7816089BF1EBC8EB573
:100AA00082608EBD8EB581608EBD8FB581608FBD39
:100AB00085B5846085BD85B5806485BD329A319ADF
:100AC000309A379A1AB808956115710581F0DB01E3
:100AD0000D900020E9F7AD0141505109461B570B1D
:100AE000DC01ED91FC910280F381E02D099480E01E
:100AF00090E00895DC01ED91FC910190F081E02DF2
:100B000009946FE670E0E0CF8F929F92AF92BF9210
:100B1000CF92DF92EF92FF920F931F93CF93DF93C9
:100B2000CDB7DEB7A1970FB6F894DEBF0FBECDBF2D
:100B30007C01C42EE52FCB01D22E19A221E02D1568
:100B400010F02AE0D22E8E010F5D1F4F8D2C912CBC
:100B5000A12CB12C6C2D7E2FA5019401FBD08C2DE6
:100B6000D29E80191124015011098A3014F4805D3D
:100B700001C0895CF80180832115310541055105CB
:100B800021F0C22EE32FCA01E5CFB801C7019CDFD7
:100B9000A1960FB6F894DEBF0FBECDBFDF91CF9107
:100BA0001F910F91FF90EF90DF90CF90BF90AF908B
:100BB0009F908F900895CF92DF92EF92FF920F93C4
:100BC0001F93CF93DF93EC016A017B01211531055F
:100BD00079F4E881F9810190F081E02D642FDF91B3
:100BE000CF911F910F91FF90EF90DF90CF900994DC
:100BF0002A303105D9F477FF18C06DE27BDF8C0114
:100C000044275527BA014C195D096E097F092AE06E
:100C1000CE017ADF800F911FDF91CF911F910F914D
:100C2000FF90EF90DF90CF9008952AE0B701A601E2
:100C3000CE01DF91CF911F910F91FF90EF90DF9048
:100C4000CF9062CF0F931F93CF93DF93EC019A0164
:100C5000AB01662757FD6095762FADDF8C01CE0185
:100C600050DF800F911FDF91CF911F910F91089559
:100C700008950ADFFDDF82DBC0E0D0E080DB209753
:100C8000E9F3BED9FBCF4F925F926F927F92AF9202
:100C9000BF92CF92DF92EF92FF920F931F93CF9369
:100CA000DF93CDB7DEB729013A01621B730B840BCA
:100CB000950B29893A894B895C892A193B094C098A
:100CC0005D09298B3A8B4B8B5C8B9B01AC0169894D
:100CD0007A898B899C891CD0E418F50806091709C4
:100CE000A801970159D02A0D3B1D4C1D5D1DCA015D
:100CF000B901DF91CF911F910F91FF90EF90DF909D
:100D0000CF90BF90AF907F906F905F904F9008957D
:100D1000DB018F939F935CD0BF91AF91A29F800D19
:100D2000911DA39F900DB29F900D1124089597FBE4
:100D3000072E16F4009406D077FD08D053D007FC98
:100D400005D03EF4909581959F4F089570956195DB
:100D50007F4F0895A1E21A2EAA1BBB1BFD010DC0F7
:100D6000AA1FBB1FEE1FFF1FA217B307E407F5075B
:100D700020F0A21BB30BE40BF50B661F771F881F37
:100D8000991F1A9469F760957095809590959B01CD
:100D9000AC01BD01CF010895052E97FB16F4009418
:100DA0000FD057FD05D0D6DF07FC02D046F408C0AF
:100DB00050954095309521953F4F4F4F5F4F089587
:100DC00090958095709561957F4F8F4F9F4F0895B7
:100DD00023D0A59F900DB49F900DA49F800D911DD1
:100DE00011240895AA1BBB1B51E107C0AA1FBB1FFA
:100DF000A617B70710F0A61BB70B881F991F5A95A7
:100E0000A9F780959095BC01CD010895EE0FFF1FC5
:100E10000590F491E02D0994A29FB001B39FC00109
:100E2000A39F01D0B29F700D811D1124911D0895C3
:040E3000F894FFCF64
:100E340001000000FF5A0100000000D10398040DD6
:100E44000A006E616E00696E66006F7666002E00A1
:00000001FF
